{
  "contractName": "Linguo",
  "abi": [
    {
      "constant": true,
      "inputs": [
        {
          "name": "",
          "type": "uint256"
        }
      ],
      "name": "disputeIDtoTaskID",
      "outputs": [
        {
          "name": "",
          "type": "uint256"
        }
      ],
      "payable": false,
      "stateMutability": "view",
      "type": "function"
    },
    {
      "constant": true,
      "inputs": [],
      "name": "governor",
      "outputs": [
        {
          "name": "",
          "type": "address"
        }
      ],
      "payable": false,
      "stateMutability": "view",
      "type": "function"
    },
    {
      "constant": true,
      "inputs": [],
      "name": "arbitratorExtraData",
      "outputs": [
        {
          "name": "",
          "type": "bytes"
        }
      ],
      "payable": false,
      "stateMutability": "view",
      "type": "function"
    },
    {
      "constant": true,
      "inputs": [],
      "name": "loserStakeMultiplier",
      "outputs": [
        {
          "name": "",
          "type": "uint256"
        }
      ],
      "payable": false,
      "stateMutability": "view",
      "type": "function"
    },
    {
      "constant": true,
      "inputs": [],
      "name": "challengeMultiplier",
      "outputs": [
        {
          "name": "",
          "type": "uint256"
        }
      ],
      "payable": false,
      "stateMutability": "view",
      "type": "function"
    },
    {
      "constant": true,
      "inputs": [],
      "name": "translationMultiplier",
      "outputs": [
        {
          "name": "",
          "type": "uint256"
        }
      ],
      "payable": false,
      "stateMutability": "view",
      "type": "function"
    },
    {
      "constant": true,
      "inputs": [],
      "name": "sharedStakeMultiplier",
      "outputs": [
        {
          "name": "",
          "type": "uint256"
        }
      ],
      "payable": false,
      "stateMutability": "view",
      "type": "function"
    },
    {
      "constant": true,
      "inputs": [],
      "name": "arbitrator",
      "outputs": [
        {
          "name": "",
          "type": "address"
        }
      ],
      "payable": false,
      "stateMutability": "view",
      "type": "function"
    },
    {
      "constant": true,
      "inputs": [],
      "name": "winnerStakeMultiplier",
      "outputs": [
        {
          "name": "",
          "type": "uint256"
        }
      ],
      "payable": false,
      "stateMutability": "view",
      "type": "function"
    },
    {
      "constant": true,
      "inputs": [
        {
          "name": "",
          "type": "uint256"
        }
      ],
      "name": "tasks",
      "outputs": [
        {
          "name": "submissionTimeout",
          "type": "uint256"
        },
        {
          "name": "minPrice",
          "type": "uint256"
        },
        {
          "name": "maxPrice",
          "type": "uint256"
        },
        {
          "name": "status",
          "type": "uint8"
        },
        {
          "name": "lastInteraction",
          "type": "uint256"
        },
        {
          "name": "requester",
          "type": "address"
        },
        {
          "name": "requesterDeposit",
          "type": "uint256"
        },
        {
          "name": "sumDeposit",
          "type": "uint256"
        },
        {
          "name": "disputeID",
          "type": "uint256"
        },
        {
          "name": "ruling",
          "type": "uint256"
        }
      ],
      "payable": false,
      "stateMutability": "view",
      "type": "function"
    },
    {
      "constant": true,
      "inputs": [],
      "name": "reviewTimeout",
      "outputs": [
        {
          "name": "",
          "type": "uint256"
        }
      ],
      "payable": false,
      "stateMutability": "view",
      "type": "function"
    },
    {
      "constant": true,
      "inputs": [],
      "name": "MULTIPLIER_DIVISOR",
      "outputs": [
        {
          "name": "",
          "type": "uint256"
        }
      ],
      "payable": false,
      "stateMutability": "view",
      "type": "function"
    },
    {
      "inputs": [
        {
          "name": "_arbitrator",
          "type": "address"
        },
        {
          "name": "_arbitratorExtraData",
          "type": "bytes"
        },
        {
          "name": "_reviewTimeout",
          "type": "uint256"
        },
        {
          "name": "_translationMultiplier",
          "type": "uint256"
        },
        {
          "name": "_challengeMultiplier",
          "type": "uint256"
        },
        {
          "name": "_sharedStakeMultiplier",
          "type": "uint256"
        },
        {
          "name": "_winnerStakeMultiplier",
          "type": "uint256"
        },
        {
          "name": "_loserStakeMultiplier",
          "type": "uint256"
        }
      ],
      "payable": false,
      "stateMutability": "nonpayable",
      "type": "constructor"
    },
    {
      "anonymous": false,
      "inputs": [
        {
          "indexed": true,
          "name": "_taskID",
          "type": "uint256"
        },
        {
          "indexed": true,
          "name": "_requester",
          "type": "address"
        },
        {
          "indexed": false,
          "name": "_timestamp",
          "type": "uint256"
        }
      ],
      "name": "TaskCreated",
      "type": "event"
    },
    {
      "anonymous": false,
      "inputs": [
        {
          "indexed": true,
          "name": "_taskID",
          "type": "uint256"
        },
        {
          "indexed": true,
          "name": "_translator",
          "type": "address"
        },
        {
          "indexed": false,
          "name": "_price",
          "type": "uint256"
        },
        {
          "indexed": false,
          "name": "_timestamp",
          "type": "uint256"
        }
      ],
      "name": "TaskAssigned",
      "type": "event"
    },
    {
      "anonymous": false,
      "inputs": [
        {
          "indexed": true,
          "name": "_taskID",
          "type": "uint256"
        },
        {
          "indexed": true,
          "name": "_translator",
          "type": "address"
        },
        {
          "indexed": false,
          "name": "_translatedText",
          "type": "string"
        },
        {
          "indexed": false,
          "name": "_timestamp",
          "type": "uint256"
        }
      ],
      "name": "TranslationSubmitted",
      "type": "event"
    },
    {
      "anonymous": false,
      "inputs": [
        {
          "indexed": true,
          "name": "_taskID",
          "type": "uint256"
        },
        {
          "indexed": true,
          "name": "_challenger",
          "type": "address"
        },
        {
          "indexed": false,
          "name": "_timestamp",
          "type": "uint256"
        }
      ],
      "name": "TranslationChallenged",
      "type": "event"
    },
    {
      "anonymous": false,
      "inputs": [
        {
          "indexed": true,
          "name": "_taskID",
          "type": "uint256"
        },
        {
          "indexed": false,
          "name": "_reason",
          "type": "string"
        },
        {
          "indexed": false,
          "name": "_timestamp",
          "type": "uint256"
        }
      ],
      "name": "TaskResolved",
      "type": "event"
    },
    {
      "anonymous": false,
      "inputs": [
        {
          "indexed": true,
          "name": "_taskID",
          "type": "uint256"
        },
        {
          "indexed": false,
          "name": "_party",
          "type": "uint8"
        }
      ],
      "name": "HasPaidAppealFee",
      "type": "event"
    },
    {
      "anonymous": false,
      "inputs": [
        {
          "indexed": true,
          "name": "_metaEvidenceID",
          "type": "uint256"
        },
        {
          "indexed": false,
          "name": "_evidence",
          "type": "string"
        }
      ],
      "name": "MetaEvidence",
      "type": "event"
    },
    {
      "anonymous": false,
      "inputs": [
        {
          "indexed": true,
          "name": "_arbitrator",
          "type": "address"
        },
        {
          "indexed": true,
          "name": "_disputeID",
          "type": "uint256"
        },
        {
          "indexed": false,
          "name": "_metaEvidenceID",
          "type": "uint256"
        },
        {
          "indexed": false,
          "name": "_evidenceGroupID",
          "type": "uint256"
        }
      ],
      "name": "Dispute",
      "type": "event"
    },
    {
      "anonymous": false,
      "inputs": [
        {
          "indexed": true,
          "name": "_arbitrator",
          "type": "address"
        },
        {
          "indexed": true,
          "name": "_evidenceGroupID",
          "type": "uint256"
        },
        {
          "indexed": true,
          "name": "_party",
          "type": "address"
        },
        {
          "indexed": false,
          "name": "_evidence",
          "type": "string"
        }
      ],
      "name": "Evidence",
      "type": "event"
    },
    {
      "anonymous": false,
      "inputs": [
        {
          "indexed": true,
          "name": "_arbitrator",
          "type": "address"
        },
        {
          "indexed": true,
          "name": "_disputeID",
          "type": "uint256"
        },
        {
          "indexed": false,
          "name": "_ruling",
          "type": "uint256"
        }
      ],
      "name": "Ruling",
      "type": "event"
    },
    {
      "constant": false,
      "inputs": [
        {
          "name": "_governor",
          "type": "address"
        }
      ],
      "name": "changeGovernor",
      "outputs": [],
      "payable": false,
      "stateMutability": "nonpayable",
      "type": "function"
    },
    {
      "constant": false,
      "inputs": [
        {
          "name": "_reviewTimeout",
          "type": "uint256"
        }
      ],
      "name": "changeReviewTimeout",
      "outputs": [],
      "payable": false,
      "stateMutability": "nonpayable",
      "type": "function"
    },
    {
      "constant": false,
      "inputs": [
        {
          "name": "_translationMultiplier",
          "type": "uint256"
        }
      ],
      "name": "changeTranslationMultiplier",
      "outputs": [],
      "payable": false,
      "stateMutability": "nonpayable",
      "type": "function"
    },
    {
      "constant": false,
      "inputs": [
        {
          "name": "_challengeMultiplier",
          "type": "uint256"
        }
      ],
      "name": "changeChallengeMultiplier",
      "outputs": [],
      "payable": false,
      "stateMutability": "nonpayable",
      "type": "function"
    },
    {
      "constant": false,
      "inputs": [
        {
          "name": "_sharedStakeMultiplier",
          "type": "uint256"
        }
      ],
      "name": "changeSharedStakeMultiplier",
      "outputs": [],
      "payable": false,
      "stateMutability": "nonpayable",
      "type": "function"
    },
    {
      "constant": false,
      "inputs": [
        {
          "name": "_winnerStakeMultiplier",
          "type": "uint256"
        }
      ],
      "name": "changeWinnerStakeMultiplier",
      "outputs": [],
      "payable": false,
      "stateMutability": "nonpayable",
      "type": "function"
    },
    {
      "constant": false,
      "inputs": [
        {
          "name": "_loserStakeMultiplier",
          "type": "uint256"
        }
      ],
      "name": "changeLoserStakeMultiplier",
      "outputs": [],
      "payable": false,
      "stateMutability": "nonpayable",
      "type": "function"
    },
    {
      "constant": false,
      "inputs": [
        {
          "name": "_deadline",
          "type": "uint256"
        },
        {
          "name": "_minPrice",
          "type": "uint256"
        },
        {
          "name": "_metaEvidence",
          "type": "string"
        }
      ],
      "name": "createTask",
      "outputs": [
        {
          "name": "taskID",
          "type": "uint256"
        }
      ],
      "payable": true,
      "stateMutability": "payable",
      "type": "function"
    },
    {
      "constant": false,
      "inputs": [
        {
          "name": "_taskID",
          "type": "uint256"
        }
      ],
      "name": "assignTask",
      "outputs": [],
      "payable": true,
      "stateMutability": "payable",
      "type": "function"
    },
    {
      "constant": false,
      "inputs": [
        {
          "name": "_taskID",
          "type": "uint256"
        },
        {
          "name": "_translation",
          "type": "string"
        }
      ],
      "name": "submitTranslation",
      "outputs": [],
      "payable": false,
      "stateMutability": "nonpayable",
      "type": "function"
    },
    {
      "constant": false,
      "inputs": [
        {
          "name": "_taskID",
          "type": "uint256"
        }
      ],
      "name": "reimburseRequester",
      "outputs": [],
      "payable": false,
      "stateMutability": "nonpayable",
      "type": "function"
    },
    {
      "constant": false,
      "inputs": [
        {
          "name": "_taskID",
          "type": "uint256"
        }
      ],
      "name": "acceptTranslation",
      "outputs": [],
      "payable": false,
      "stateMutability": "nonpayable",
      "type": "function"
    },
    {
      "constant": false,
      "inputs": [
        {
          "name": "_taskID",
          "type": "uint256"
        },
        {
          "name": "_evidence",
          "type": "string"
        }
      ],
      "name": "challengeTranslation",
      "outputs": [],
      "payable": true,
      "stateMutability": "payable",
      "type": "function"
    },
    {
      "constant": false,
      "inputs": [
        {
          "name": "_taskID",
          "type": "uint256"
        },
        {
          "name": "_side",
          "type": "uint8"
        }
      ],
      "name": "fundAppeal",
      "outputs": [],
      "payable": true,
      "stateMutability": "payable",
      "type": "function"
    },
    {
      "constant": false,
      "inputs": [
        {
          "name": "_beneficiary",
          "type": "address"
        },
        {
          "name": "_taskID",
          "type": "uint256"
        },
        {
          "name": "_round",
          "type": "uint256"
        }
      ],
      "name": "withdrawFeesAndRewards",
      "outputs": [],
      "payable": false,
      "stateMutability": "nonpayable",
      "type": "function"
    },
    {
      "constant": false,
      "inputs": [
        {
          "name": "_beneficiary",
          "type": "address"
        },
        {
          "name": "_taskID",
          "type": "uint256"
        },
        {
          "name": "_cursor",
          "type": "uint256"
        },
        {
          "name": "_count",
          "type": "uint256"
        }
      ],
      "name": "batchRoundWithdraw",
      "outputs": [],
      "payable": false,
      "stateMutability": "nonpayable",
      "type": "function"
    },
    {
      "constant": false,
      "inputs": [
        {
          "name": "_disputeID",
          "type": "uint256"
        },
        {
          "name": "_ruling",
          "type": "uint256"
        }
      ],
      "name": "rule",
      "outputs": [],
      "payable": false,
      "stateMutability": "nonpayable",
      "type": "function"
    },
    {
      "constant": false,
      "inputs": [
        {
          "name": "_taskID",
          "type": "uint256"
        },
        {
          "name": "_evidence",
          "type": "string"
        }
      ],
      "name": "submitEvidence",
      "outputs": [],
      "payable": false,
      "stateMutability": "nonpayable",
      "type": "function"
    },
    {
      "constant": true,
      "inputs": [
        {
          "name": "_taskID",
          "type": "uint256"
        },
        {
          "name": "_beneficiary",
          "type": "address"
        }
      ],
      "name": "amountWithdrawable",
      "outputs": [
        {
          "name": "total",
          "type": "uint256"
        }
      ],
      "payable": false,
      "stateMutability": "view",
      "type": "function"
    },
    {
      "constant": true,
      "inputs": [
        {
          "name": "_taskID",
          "type": "uint256"
        }
      ],
      "name": "getDepositValue",
      "outputs": [
        {
          "name": "deposit",
          "type": "uint256"
        }
      ],
      "payable": false,
      "stateMutability": "view",
      "type": "function"
    },
    {
      "constant": true,
      "inputs": [
        {
          "name": "_taskID",
          "type": "uint256"
        }
      ],
      "name": "getChallengeValue",
      "outputs": [
        {
          "name": "deposit",
          "type": "uint256"
        }
      ],
      "payable": false,
      "stateMutability": "view",
      "type": "function"
    },
    {
      "constant": true,
      "inputs": [
        {
          "name": "_taskID",
          "type": "uint256"
        }
      ],
      "name": "getTaskPrice",
      "outputs": [
        {
          "name": "price",
          "type": "uint256"
        }
      ],
      "payable": false,
      "stateMutability": "view",
      "type": "function"
    },
    {
      "constant": true,
      "inputs": [],
      "name": "getTaskCount",
      "outputs": [
        {
          "name": "",
          "type": "uint256"
        }
      ],
      "payable": false,
      "stateMutability": "view",
      "type": "function"
    },
    {
      "constant": true,
      "inputs": [
        {
          "name": "_taskID",
          "type": "uint256"
        }
      ],
      "name": "getNumberOfRounds",
      "outputs": [
        {
          "name": "",
          "type": "uint256"
        }
      ],
      "payable": false,
      "stateMutability": "view",
      "type": "function"
    },
    {
      "constant": true,
      "inputs": [
        {
          "name": "_taskID",
          "type": "uint256"
        },
        {
          "name": "_round",
          "type": "uint256"
        },
        {
          "name": "_contributor",
          "type": "address"
        }
      ],
      "name": "getContributions",
      "outputs": [
        {
          "name": "contributions",
          "type": "uint256[3]"
        }
      ],
      "payable": false,
      "stateMutability": "view",
      "type": "function"
    },
    {
      "constant": true,
      "inputs": [
        {
          "name": "_taskID",
          "type": "uint256"
        }
      ],
      "name": "getTaskParties",
      "outputs": [
        {
          "name": "parties",
          "type": "address[3]"
        }
      ],
      "payable": false,
      "stateMutability": "view",
      "type": "function"
    },
    {
      "constant": true,
      "inputs": [
        {
          "name": "_taskID",
          "type": "uint256"
        },
        {
          "name": "_round",
          "type": "uint256"
        }
      ],
      "name": "getRoundInfo",
      "outputs": [
        {
          "name": "paidFees",
          "type": "uint256[3]"
        },
        {
          "name": "hasPaid",
          "type": "bool[3]"
        },
        {
          "name": "feeRewards",
          "type": "uint256"
        }
      ],
      "payable": false,
      "stateMutability": "view",
      "type": "function"
    }
  ],
  "bytecode": "0x60806040523480156200001157600080fd5b5060405162003957380380620039578339810160409081528151602080840151928401516060850151608086015160a087015160c088015160e089015160008054600160a060020a031916600160a060020a038a161790559790980180519698909794969395929491939092899189916200009291600191840190620000cb565b505060028054600160a060020a031916331790555060039590955560049390935560059190915560065560075560085550620001709050565b828054600181600116156101000203166002900490600052602060002090601f016020900481019282601f106200010e57805160ff19168380011785556200013e565b828001600101855582156200013e579182015b828111156200013e57825182559160200191906001019062000121565b506200014c92915062000150565b5090565b6200016d91905b808211156200014c576000815560010162000157565b90565b6137d780620001806000396000f3006080604052600436106101c95763ffffffff60e060020a600035041663064ba18981146101ce57806309e24ad4146101f85780630c340a24146102125780630c7ac7b6146102435780631165542b146102cd57806312b3a2c0146102f157806312ce3525146103025780631972483a1461031a5780631d5120851461033257806320c58ca514610347578063244772e81461035c578063311a6c5614610374578063339ac67c1461038f5780633a2dabfa146103b957806341658341146103ce57806368c76ffd146103e35780636cc6cde1146104425780636e8218aa146104575780636e99a23a1461046f5780637b9433831461049657806382b35017146104ab578063881f7c57146104c65780638a9bb02a146104dd5780638d9776721461056357806392239dff146105f057806395c9552214610608578063a6a7f0eb14610620578063a95c980514610644578063aba4ab741461065c578063adc7faba14610674578063b5f3918b1461068c578063b8573185146106a4578063c17a340e146106af578063c36cd196146106c4578063c4e690df146106e8578063d2dbe1d8146106fd578063d661dd3114610715578063e4c0aaf41461072a578063fc6f8f161461074b575b600080fd5b3480156101da57600080fd5b506101e6600435610763565b60408051918252519081900360200190f35b34801561020457600080fd5b50610210600435610775565b005b34801561021e57600080fd5b506102276107df565b60408051600160a060020a039092168252519081900360200190f35b34801561024f57600080fd5b506102586107ee565b6040805160208082528351818301528351919283929083019185019080838360005b8381101561029257818101518382015260200161027a565b50505050905090810190601f1680156102bf5780820380516001836020036101000a031916815260200191505b509250505060405180910390f35b3480156102d957600080fd5b506101e6600435600160a060020a036024351661087b565b61021060043560ff60243516610a9b565b34801561030e57600080fd5b5061021060043561139e565b34801561032657600080fd5b506101e6600435611408565b34801561033e57600080fd5b506101e661159f565b34801561035357600080fd5b506101e66115a5565b34801561036857600080fd5b506101e66004356115ab565b34801561038057600080fd5b50610210600435602435611637565b34801561039b57600080fd5b50610210600160a060020a036004351660243560443560643561182d565b3480156103c557600080fd5b506101e6611887565b3480156103da57600080fd5b506101e661188d565b3480156103ef57600080fd5b5061040a600435602435600160a060020a0360443516611893565b6040518082606080838360005b8381101561042f578181015183820152602001610417565b5050505090500191505060405180910390f35b34801561044e57600080fd5b50610227611932565b34801561046357600080fd5b506101e6600435611941565b34801561047b57600080fd5b50610210600160a060020a0360043516602435604435611ae9565b3480156104a257600080fd5b506101e6611dca565b6101e660048035906024803591604435918201910135611dd0565b610210600480359060248035908101910135611fc6565b3480156104e957600080fd5b506104f86004356024356124d2565b6040518084606080838360005b8381101561051d578181015183820152602001610505565b5050505090500183600360200280838360005b83811015610548578181015183820152602001610530565b50505050905001828152602001935050505060405180910390f35b34801561056f57600080fd5b5061057b6004356125d1565b604051808b81526020018a815260200189815260200188600481111561059d57fe5b60ff16815260200187815260200186600160a060020a0316600160a060020a031681526020018581526020018481526020018381526020018281526020019a505050505050505050505060405180910390f35b3480156105fc57600080fd5b50610210600435612641565b34801561061457600080fd5b5061040a6004356126ab565b34801561062c57600080fd5b50610210600480359060248035908101910135612719565b34801561065057600080fd5b5061021060043561280f565b34801561066857600080fd5b50610210600435612879565b34801561068057600080fd5b50610210600435612a46565b34801561069857600080fd5b50610210600435612ab0565b610210600435612b1a565b3480156106bb57600080fd5b506101e6612e9b565b3480156106d057600080fd5b50610210600480359060248035908101910135612ea2565b3480156106f457600080fd5b506101e66130cb565b34801561070957600080fd5b506102106004356130d1565b34801561072157600080fd5b506101e6613266565b34801561073657600080fd5b50610210600160a060020a036004351661326c565b34801561075757600080fd5b506101e66004356132f3565b600a6020526000908152604090205481565b600254600160a060020a031633146107da576040805160e560020a62461bcd028152602060048201526029602482015260008051602061372c833981519152604482015260b960020a6837b936903a3434b99702606482015290519081900360840190fd5b600355565b600254600160a060020a031681565b60018054604080516020600284861615610100026000190190941693909304601f810184900484028201840190925281815292918301828280156108735780601f1061084857610100808354040283529160200191610873565b820191906000526020600020905b81548152906001019060200180831161085657829003601f168201915b505050505081565b60008060008060008060098881548110151561089357fe5b60009182526020909120600e9091020194506004600386015460ff1660048111156108ba57fe5b146108c457610a90565b600093505b600c850154841015610a9057600c85018054859081106108e557fe5b60009182526020909120600360069092020190810154909350610100900460ff16158061091d5750600383015462010000900460ff16155b1561095257600160a060020a038716600090815260058401602052604090206002810154600190910154019590950194610a85565b600d8501541515610a0f5760008360010154116109705760006109ae565b826002015483600101546004850154600160a060020a038a1660009081526005870160205260409020929091019160010154028115156109ac57fe5b045b915060008360020154116109c3576000610a01565b826002015483600101546004850154600160a060020a038a1660009081526005870160205260409020929091019160020154028115156109ff57fe5b045b905080820186019550610a85565b600d850154600090849060038110610a2357fe5b015411610a31576000610a80565b600d850154839060038110610a4257fe5b01546004840154600160a060020a03891660009081526005860160205260409020600d88015460038110610a7257fe5b015402811515610a7e57fe5b045b860195505b6001909301926108c9565b505050505092915050565b60008060008060008060008060008060098c815481101515610ab957fe5b60009182526020909120600e90910201995060018b6002811115610ad957fe5b1480610af0575060028b6002811115610aee57fe5b145b1515610b68576040805160e560020a62461bcd02815260206004820152603660248201527f526563697069656e74206d7573742062652065697468657220746865207472616044820152605160020a753739b630ba37b91037b91031b430b63632b733b2b91702606482015290519081900360840190fd5b6003808b015460ff166004811115610b7c57fe5b14610bcb576040805160e560020a62461bcd0281526020600482015260146024820152606260020a73139bc8191a5cdc1d5d19481d1bc8185c1c19585b02604482015290519081900360640190fd5b600160008054600b8d01546040805160e360020a63021e2d3d028152600481019290925251600160a060020a03909216926310f169e8926024808401936020939083900390910190829087803b158015610c2457600080fd5b505af1158015610c38573d6000803e3d6000fd5b505050506040513d6020811015610c4e57600080fd5b50516002811115610c5b57fe5b14610cb0576040805160e560020a62461bcd02815260206004820152601a60248201527f44697370757465206973206e6f742061707065616c61626c652e000000000000604482015290519081900360640190fd5b60008054600b8c01546040805160e060020a63afe15cfb02815260048101929092528051600160a060020a039093169363afe15cfb936024808501949192918390030190829087803b158015610d0557600080fd5b505af1158015610d19573d6000803e3d6000fd5b505050506040513d6040811015610d2f57600080fd5b5080516020909101519099509750428911801590610d4c57508742105b1515610dbc576040805160e560020a62461bcd02815260206004820152602e60248201527f46756e64696e67206d757374206265206d6164652077697468696e20746865206044820152609160020a6d30b83832b0b6103832b934b7b21702606482015290519081900360840190fd5b60008054600b8c01546040805160e060020a631c3db16d028152600481019290925251600160a060020a0390921692631c3db16d926024808401936020939083900390910190829087803b158015610e1357600080fd5b505af1158015610e27573d6000803e3d6000fd5b505050506040513d6020811015610e3d57600080fd5b505196508a6002811115610e4d57fe5b871415610e5e576007549550610efa565b861515610e6f576006549550610efa565b600289890304428a900310610ef4576040805160e560020a62461bcd02815260206004820152603e60248201527f546865206c6f736572206d7573742070617920647572696e672074686520666960448201527f7273742068616c66206f66207468652061707065616c20706572696f642e0000606482015290519081900360840190fd5b60085495505b600c8a0180546000198101908110610f0e57fe5b90600052602060002090600602019450846003018b6002811115610f2e57fe5b60038110610f3857fe5b602081049091015460ff601f9092166101000a90041615610fb0576040805160e560020a62461bcd02815260206004820152602160248201527f41707065616c206665652068617320616c7265616479206265656e2070616964604482015260f960020a601702606482015290519081900360840190fd5b600054600b8b01546040805160e160020a63791f8b7302815260048101838152602482019283526001805460026000198284161561010002019091160460448401819052600160a060020a039096169563f23f16e695949193606401908490801561105c5780601f106110315761010080835404028352916020019161105c565b820191906000526020600020905b81548152906001019060200180831161103f57829003601f168201915b50509350505050602060405180830381600087803b15801561107d57600080fd5b505af1158015611091573d6000803e3d6000fd5b505050506040513d60208110156110a757600080fd5b505193506110d96127106110c1868963ffffffff61332016565b8115156110ca57fe5b8691900463ffffffff61335d16565b925061110d34611108878e60028111156110ef57fe5b600381106110f957fe5b0154869063ffffffff61337216565b61338f565b3360009081526005880160205260409020919350915082908c600281111561113157fe5b6003811061113b57fe5b018054909101905581858c600281111561115157fe5b6003811061115b57fe5b018054909101905582858c600281111561117157fe5b6003811061117b57fe5b01541061122e576001856003018c600281111561119457fe5b6003811061119e57fe5b602091828204019190066101000a81548160ff021916908315150217905550846000018b60028111156111cd57fe5b600381106111d757fe5b015460048601805490910190556040518c907f213276d821d6205d87fa4f4658db4bf5a24a2323b0fdd8ffcd239c445f86a57b908d908082600281111561121a57fe5b60ff16815260200191505060405180910390a25b604051339082156108fc029083906000818181858888f1505050506003860154610100900460ff169050801561126e5750600385015462010000900460ff165b1561139057600054600b8b01546040805160e360020a63093225f102815260048101838152602482019283526001805460026000198284161561010002019091160460448401819052600160a060020a03909616956349912f88958b9590949293929091606490910190849080156113275780601f106112fc57610100808354040283529160200191611327565b820191906000526020600020905b81548152906001019060200180831161130a57829003601f168201915b505093505050506000604051808303818588803b15801561134757600080fd5b505af115801561135b573d6000803e3d6000fd5b505050600c8c018054925061137491506001830161358a565b50600485015461138a908563ffffffff61337216565b60048601555b505050505050505050505050565b600254600160a060020a03163314611403576040805160e560020a62461bcd028152602060048201526029602482015260008051602061372c833981519152604482015260b960020a6837b936903a3434b99702606482015290519081900360840190fd5b600655565b600080600060098481548110151561141c57fe5b90600052602060002090600e0201915060035482600401544203118061145557506002600383015460ff16600481111561145257fe5b14155b1561146957600160ff60020a039250611598565b60005460405160e060020a63f7434ea90281526020600482019081526001805460026000198284161561010002019091160460248401819052600160a060020a039094169363f7434ea99391929182916044909101908490801561150e5780601f106114e35761010080835404028352916020019161150e565b820191906000526020600020905b8154815290600101906020018083116114f157829003601f168201915b505092505050602060405180830381600087803b15801561152e57600080fd5b505af1158015611542573d6000803e3d6000fd5b505050506040513d602081101561155857600080fd5b50516006830154600554919250611595916127109161157d919063ffffffff61332016565b81151561158657fe5b8391900463ffffffff61335d16565b92505b5050919050565b60085481565b60055481565b6000806009838154811015156115bd57fe5b90600052602060002090600e0201905080600001548160040154420311806115f857506000600382015460ff1660048111156115f557fe5b14155b156116065760009150611631565b80600001548160040154420382600101548360020154030281151561162757fe5b0481600101540191505b50919050565b60008060008084600281111561164957fe5b6000878152600a602052604090205460098054929650909450908490811061166d57fe5b60009182526020909120600e90910201600c8101805491935090600019810190811061169557fe5b60009182526020822091546006919091029091019150600160a060020a03163314611717576040805160e560020a62461bcd02815260206004820152602160248201527f4d7573742062652063616c6c6564206279207468652061726269747261746f72604482015260f960020a601702606482015290519081900360840190fd5b60038083015460ff16600481111561172b57fe5b14611792576040805160e560020a62461bcd02815260206004820152602660248201527f54686520646973707574652068617320616c7265616479206265656e20726573604482015260d160020a6537b63b32b21702606482015290519081900360840190fd5b600381015460ff610100909104161515600114156117b357600193506117d0565b600381015462010000900460ff161515600114156117d057600293505b85337f394027a5fa6e098a1191094d1719d6929b9abc535fcc0c8f448d6a4e756222768660028111156117ff57fe5b60408051918252519081900360200190a36118258685600281111561182057fe5b6133b4565b505050505050565b60008060098581548110151561183f57fe5b90600052602060002090600e020191508390505b600c8201548110801561186f575082158061186f575082840181105b156118255761187f868683611ae9565b600101611853565b60045481565b60065481565b61189b6135bb565b6000806009868154811015156118ad57fe5b90600052602060002090600e0201915081600c01858154811015156118ce57fe5b60009182526020808320600160a060020a03881684526005600690930201918201905260409182902082516060810190935290925060038282826020028201915b81548152602001906001019080831161190f575050505050925050509392505050565b600054600160a060020a031681565b60008060008060098581548110151561195657fe5b90600052602060002090600e02019250826000015483600401544203118061199157506000600384015460ff16600481111561198e57fe5b14155b156119a557600160ff60020a039350611ae1565b8260000154836004015442038460010154856002015403028115156119c657fe5b60018581015460005460405160e060020a63f7434ea9028152602060048201908152845460026101008288161502600019019091160460248301819052969095049092019650600160a060020a03169363f7434ea99391829160449091019084908015611a745780601f10611a4957610100808354040283529160200191611a74565b820191906000526020600020905b815481529060010190602001808311611a5757829003601f168201915b505092505050602060405180830381600087803b158015611a9457600080fd5b505af1158015611aa8573d6000803e3d6000fd5b505050506040513d6020811015611abe57600080fd5b5051600454909150611ade906127109061157d908563ffffffff61332016565b93505b505050919050565b6000806000806000600987815481101515611b0057fe5b90600052602060002090600e0201945084600c0186815481101515611b2157fe5b6000918252602090912060069091020193506004600386015460ff166004811115611b4857fe5b14611b9d576040805160e560020a62461bcd02815260206004820152601c60248201527f546865207461736b2073686f756c64206265207265736f6c7665642e00000000604482015290519081900360640190fd5b6003840154610100900460ff161580611bc15750600384015462010000900460ff16155b15611c2057600160a060020a03881660009081526005850160205260408120600281015460018083015490910195505b60038110611bfb57fe5b0155600160a060020a0388166000908152600585016020526040812060020155611d9b565b600d8501541515611cf9576000846001015411611c3e576000611c7c565b836002015484600101546004860154600160a060020a038b166000908152600588016020526040902092909101916001015402811515611c7a57fe5b045b91506000846002015411611c91576000611ccf565b836002015484600101546004860154600160a060020a038b166000908152600588016020526040902092909101916002015402811515611ccd57fe5b045b600160a060020a038916600090815260058601602052604081208483019550919250906001611bf1565b600d850154600090859060038110611d0d57fe5b015411611d1b576000611d6a565b600d850154849060038110611d2c57fe5b01546004850154600160a060020a038a1660009081526005870160205260409020600d88015460038110611d5c57fe5b015402811515611d6857fe5b045b600160a060020a03891660009081526005860160205260408120600d880154929550909160038110611d9857fe5b01555b604051600160a060020a0389169084156108fc029085906000818181858888f150505050505050505050505050565b60075481565b60008034851115611e5e576040805160e560020a62461bcd02815260206004820152604160248201527f4465706f73697465642076616c75652073686f756c642062652067726561746560448201527f72207468616e206f7220657175616c20746f20746865206d696e207072696365606482015260f960020a601702608482015290519081900360a40190fd5b428611611ec6576040805160e560020a62461bcd02815260206004820152602560248201527f54686520646561646c696e652073686f756c6420626520696e20746865206675604482015260d960020a643a3ab9329702606482015290519081900360840190fd5b6009805490611ed890600183016135da565b9150600982815481101515611ee957fe5b600091825260209182902042808a03600e9093029091019182556001820188905534600283018190556004830191909155600582018054600160a060020a0319163317905560068201556040805183815292830186905290925083917f61606860eb6c87306811e2695215385101daab53bd6ab4e9f9049aead9363c7d91879187918190810184848082843760405192018290039550909350505050a2604080514281529051339184917f6cf53aa7292e664152c2ea948c3b3c95d4b05c36daeb2626d0293473c4a4a1539181900360200190a350949350505050565b600080600080600987815481101515611fdb57fe5b60009182526020808320925460405160e060020a63f7434ea9028152600481019283526001805460026000198284161561010002019091160460248301819052600e9095029095019850600160a060020a039091169363f7434ea9939092918291604490910190849080156120915780601f1061206657610100808354040283529160200191612091565b820191906000526020600020905b81548152906001019060200180831161207457829003601f168201915b505092505050602060405180830381600087803b1580156120b157600080fd5b505af11580156120c5573d6000803e3d6000fd5b505050506040513d60208110156120db57600080fd5b505160068501546005549194506121189161271091612100919063ffffffff61332016565b81151561210957fe5b8591900463ffffffff61335d16565b91506002600385015460ff16600481111561212f57fe5b14612172576040805160e560020a62461bcd028152602060048201819052602482015260008051602061376c833981519152604482015290519081900360640190fd5b6003546004850154420311156121e1576040805160e560020a62461bcd028152602060048201526024808201527f546865207265766965772070686173652068617320616c726561647920706173604482015260e160020a6339b2b21702606482015290519081900360840190fd5b3482111561224f576040805160e560020a62461bcd02815260206004820152602a60248201527f4e6f7420656e6f7567682045544820746f20636f766572206368616c6c656e67604482015260b160020a6932903232b837b9b4ba1702606482015290519081900360840190fd5b6003848101805460ff19169091179055600a84018054600160a060020a031916331790556000546040805160e060020a63c13517e102815260026004820181815260248301938452600180546000198183161561010002011683900460448501819052600160a060020a03969096169563c13517e1958a959293929091606490910190849080156123215780601f106122f657610100808354040283529160200191612321565b820191906000526020600020905b81548152906001019060200180831161230457829003601f168201915b505093505050506020604051808303818588803b15801561234157600080fd5b505af1158015612355573d6000803e3d6000fd5b50505050506040513d602081101561236c57600080fd5b5051600b85018190556000908152600a60205260409020879055600c840180549061239a906001830161358a565b506123c2836123b684876007015461335d90919063ffffffff16565b9063ffffffff61337216565b6007850155506040513482900390339082156108fc029083906000818181858888f1505050600b860154600054604080518c8152602081018d90528151939550600160a060020a0390921693507f74baab670a4015ab2f1b467c5252a96141a2573f2908e58a92081e80d3cfde3d92918290030190a3604080514281529051339189917f6f0bb1c54bb0ad8822894f45a3837ab62e23e77d25c5881ab57e1c6a99f7e0b59181900360200190a360008511156124c957600054604080516020808252810188905233928a92600160a060020a039091169160008051602061374c833981519152918b918b918190810184848082843760405192018290039550909350505050a45b50505050505050565b6124da6135bb565b6124e26135bb565b60008060006009878154811015156124f657fe5b90600052602060002090600e0201915081600c018681548110151561251757fe5b90600052602060002090600602019050806000018160030182600401548260038060200260405190810160405280929190826003801561256c576020028201915b815481526020019060010190808311612558575b5050604080516060810191829052949750869350600392509050826000855b825461010083900a900460ff16151581526020600192830181810494850194909303909202910180841161258b5790505050505050915094509450945050509250925092565b60098054829081106125df57fe5b60009182526020909120600e9091020180546001820154600283015460038401546004850154600586015460068701546007880154600b890154600d909901549799509597949660ff909416959294600160a060020a0390921693909291908a565b600254600160a060020a031633146126a6576040805160e560020a62461bcd028152602060048201526029602482015260008051602061372c833981519152604482015260b960020a6837b936903a3434b99702606482015290519081900360840190fd5b600855565b6126b36135bb565b60006009838154811015156126c457fe5b60009182526020909120604080516060810191829052600e9093029091019250600883019060039082845b8154600160a060020a031681526001909101906020018083116126ef575050505050915050919050565b600060098481548110151561272a57fe5b60009182526020909120600e9091020190506004600382015460ff16600481111561275157fe5b14156127b9576040805160e560020a62461bcd02815260206004820152602660248201527f546865207461736b206d757374206e6f7420616c726561647920626520726573604482015260d160020a6537b63b32b21702606482015290519081900360840190fd5b600054604080516020808252810185905233928792600160a060020a039091169160008051602061374c83398151915291889188918190810184848082843760405192018290039550909350505050a450505050565b600254600160a060020a03163314612874576040805160e560020a62461bcd028152602060048201526029602482015260008051602061372c833981519152604482015260b960020a6837b936903a3434b99702606482015290519081900360840190fd5b600455565b60008060098381548110151561288b57fe5b60009182526020909120600e9091020191506002600383015460ff1660048111156128b257fe5b10612920576040805160e560020a62461bcd02815260206004820152602d60248201527f43616e2774207265696d6275727365206966207472616e736c6174696f6e20776044820152609960020a6c30b99039bab136b4ba3a32b21702606482015290519081900360840190fd5b8154600483015442031161299c576040805160e560020a62461bcd02815260206004820152603260248201527f43616e2774207265696d62757273652069662074686520646561646c696e65206044820152607160020a713430b9b713ba103830b9b9b2b2103cb2ba1702606482015290519081900360840190fd5b5060038101805460ff191660041790556007810154600682015460058301546040519190920191600160a060020a0316906108fc8315029083906000818181858888f150506000600686018190556007860155505060408051426020820152818152601481830152606260020a731c995c5d595cdd195c8b5c995a5b589d5c9cd959026060820152905185925060008051602061378c8339815191529181900360800190a2505050565b600254600160a060020a03163314612aab576040805160e560020a62461bcd028152602060048201526029602482015260008051602061372c833981519152604482015260b960020a6837b936903a3434b99702606482015290519081900360840190fd5b600755565b600254600160a060020a03163314612b15576040805160e560020a62461bcd028152602060048201526029602482015260008051602061372c833981519152604482015260b960020a6837b936903a3434b99702606482015290519081900360840190fd5b600555565b6000806000806000600986815481101515612b3157fe5b90600052602060002090600e0201945084600001548560040154420311151515612b93576040805160e560020a62461bcd028152602060048201819052602482015260008051602061370c833981519152604482015290519081900360640190fd5b846000015485600401544203866001015487600201540302811515612bb457fe5b60018781015460005460405160e060020a63f7434ea9028152602060048201908152845460026101008288161502600019019091160460248301819052969095049092019850600160a060020a03169363f7434ea99391829160449091019084908015612c625780601f10612c3757610100808354040283529160200191612c62565b820191906000526020600020905b815481529060010190602001808311612c4557829003601f168201915b505092505050602060405180830381600087803b158015612c8257600080fd5b505af1158015612c96573d6000803e3d6000fd5b505050506040513d6020811015612cac57600080fd5b5051600454909350612ccc9061271090612100908763ffffffff61332016565b91506000600386015460ff166004811115612ce357fe5b14612d51576040805160e560020a62461bcd02815260206004820152602d60248201527f5461736b2068617320616c7265616479206265656e2061737369676e6564206f6044820152609960020a6c39103932b4b6b13ab939b2b21702606482015290519081900360840190fd5b34821115612dc8576040805160e560020a62461bcd02815260206004820152603360248201527f4e6f7420656e6f7567682045544820746f2072656163682074686520726571756044820152606960020a7234b932b2103232b837b9b4ba103b30b63ab29702606482015290519081900360840190fd5b50600984018054600160a060020a0319163317905560038401805460ff19166001179055600284015460058501546040519185900391600160a060020a0391909116906108fc8315029083906000818181858888f150505050600686018590555050600784018054820190556040513482900390339082156108fc029083906000818181858888f150506040805188815242602082015281513395508b94507f9c8de00bfaaca6ca425ca3047c87c81f398e79f7c15166f53dcb29782ef9da4293509081900390910190a3505050505050565b6009545b90565b6000600984815481101515612eb357fe5b60009182526020909120600e9091020190506001600382015460ff166004811115612eda57fe5b14612f6b576040805160e560020a62461bcd02815260206004820152604a60248201527f546865207461736b20697320656974686572206e6f742061737369676e65642060448201527f6f72207472616e736c6174696f6e2068617320616c7265616479206265656e20606482015260b160020a6939bab136b4ba3a32b21702608482015290519081900360a40190fd5b8054600482015442031115612fb8576040805160e560020a62461bcd028152602060048201819052602482015260008051602061370c833981519152604482015290519081900360640190fd5b6008810160010154600160a060020a03163314613052576040805160e560020a62461bcd02815260206004820152604160248201527f43616e2774207375626d6974207472616e736c6174696f6e20746f207468652060448201527f7461736b2074686174207761736e27742061737369676e656420746f20796f75606482015260f960020a601702608482015290519081900360a40190fd5b60038101805460ff1916600217905542600482018190556040805160208101839052818152908101849052339186917f81c1cc8daea412565717a44fb42a08dbcb5d73101f5473d062391293c947d26d91879187919080606081018585808284376040519201829003965090945050505050a350505050565b60035481565b6000806009838154811015156130e357fe5b60009182526020909120600e9091020191506002600383015460ff16600481111561310a57fe5b1461314d576040805160e560020a62461bcd028152602060048201819052602482015260008051602061376c833981519152604482015290519081900360640190fd5b60035460048301544203116131bb576040805160e560020a62461bcd02815260206004820152602360248201527f54686520726576696577207068617365206861736e2774207061737365642079604482015260e960020a6232ba1702606482015290519081900360840190fd5b5060038101805460ff1916600417905560078101546006820154016008820160010154604051600160a060020a039091169082156108fc029083906000818181858888f150506000600686018190556007860155505060408051426020820152818152601481830152606260020a731d1c985b9cdb185d1a5bdb8b5858d8d95c1d1959026060820152905185925060008051602061378c8339815191529181900360800190a2505050565b61271081565b600254600160a060020a031633146132d1576040805160e560020a62461bcd028152602060048201526029602482015260008051602061372c833981519152604482015260b960020a6837b936903a3434b99702606482015290519081900360840190fd5b60028054600160a060020a031916600160a060020a0392909216919091179055565b60008060098381548110151561330557fe5b60009182526020909120600c600e9092020101549392505050565b6000808315156133335760009150613356565b5082820282848281151561334357fe5b041461335157600019613353565b805b91505b5092915050565b60008282018381101561335157600019613353565b60008282111561338457506000613389565b508082035b92915050565b600080838311156133a5575082905060006133ad565b508190508083035b9250929050565b6000828152600a602052604081205460098054919291829190849081106133d757fe5b600091825260209091206003600e90920201908101805460ff19166004179055600d810185905591508315156134ac5760058201546006830154604051600160a060020a039092169181156108fc0291906000818181858888f1505050506007830154600984015460405160029092049350600160a060020a031691506108fc8315029083906000818181858888f1505050600884019150600290505b6003811061347e57fe5b0154604051600160a060020a039091169082156108fc029083906000818181858888f193505050505061352a565b60018414156134cc57506007810154600682015401600882016001613474565b60058201546006830154604051600160a060020a039092169181156108fc0291906000818181858888f150505050600a8301546007840154604051600160a060020a03909216925080156108fc02916000818181858888f150505050505b600060068301819055600783015560408051426020820152818152600f81830152608a60020a6e191a5cdc1d5d194b5cd95d1d1b19590260608201529051849160008051602061378c833981519152919081900360800190a25050505050565b8154818355818111156135b6576006028160060283600052602060002091820191016135b69190613606565b505050565b6060604051908101604052806003906020820280388339509192915050565b8154818355818111156135b657600e0281600e0283600052602060002091820191016135b69190613642565b612e9f91905b8082111561363e57600061362082826136cb565b61362e6003830160006136e0565b506000600482015560060161360c565b5090565b612e9f91905b8082111561363e576000808255600182018190556002820181905560038201805460ff1916905560048201819055600582018054600160a060020a031916905560068201819055600782018190556136a360088301826136cb565b600b820160009055600c820160006136bb91906136e7565b506000600d820155600e01613648565b50600081556001016000815560010160009055565b5060009055565b50805460008255600602906000526020600020908101906137089190613606565b50560054686520646561646c696e652068617320616c7265616479207061737365642e4f6e6c7920676f7665726e6f7220697320616c6c6f77656420746f2070657266dccf2f8b2cc26eafcd61905cba744cff4b81d14740725f6376390dc6298a6a3c546865207461736b20697320696e207468652077726f6e67207374617475732e5850eca3b971056e7a311e04b06c359c0aceec8e422e4e015301e136efbd888aa165627a7a723058201e92cc8397ca57fd85896bb4768d43b8201431ceca1727cf33051119848a61310029",
  "source": "/**\n *  @authors: [@unknownunknown1]\n *  @reviewers: [@ferittuncer*, @clesaege*, @satello*, @hbarcelos, @mtsalenc]\n *  @auditors: []\n *  @bounties: []\n *  @deployments: []\n *  @tools: [MythX]\n */\n\n/* solium-disable security/no-block-members */\n/* solium-disable max-len*/\npragma solidity ^0.4.26;\n\nimport \"./Arbitrable.sol\";\nimport \"../../libraries/CappedMath.sol\";\n\n/** @title Linguo\n *  Linguo is a decentralized platform where anyone can submit a document for translation and have it translated by freelancers.\n *  It has no platform fees and disputes about translation quality are handled by Kleros jurors.\n *  NOTE: This contract trusts that the Arbitrator is honest and will not reenter or modify its costs during a call.\n *  The arbitrator must support appeal period.\n */\ncontract Linguo is Arbitrable {\n\n    using CappedMath for uint;\n\n    /* *** Contract variables *** */\n    uint public constant MULTIPLIER_DIVISOR = 10000; // Divisor parameter for multipliers.\n    uint constant NOT_PAYABLE_VALUE = (2**256-2)/2; // A value depositor won't be able to pay.\n\n    enum Status {Created, Assigned, AwaitingReview, DisputeCreated, Resolved}\n\n    enum Party {\n        None, // Party that is mapped with 0 dispute ruling.\n        Translator, // The one performing translation task.\n        Challenger // The one challenging translated text in the review period.\n    }\n\n    // Arrays of 3 elements in the Task and Round structs map to the parties. Index \"0\" is not used, \"1\" is used for translator and \"2\" for challenger.\n    struct Task {\n        uint submissionTimeout; // Time in seconds allotted for submitting a translation. The end of this period is considered a deadline.\n        uint minPrice; // Minimal price for the translation. When the task is created it has minimal price that gradually increases such as it reaches maximal price at deadline.\n        uint maxPrice; // Maximal price for the translation and also value that must be deposited by the requester.\n        Status status; // Status of the task.\n        uint lastInteraction; // The time of the last action performed on the task. Note that lastInteraction is updated only during timeout-related actions such as the creation of the task and the submission of the translation.\n        address requester; // The party requesting the translation.\n        uint requesterDeposit; // The deposit requester makes when creating the task. Once a task is assigned this deposit will be partially reimbursed and its value replaced by task price.\n        uint sumDeposit; // The sum of the deposits of translator and challenger, if any. This value (minus arbitration fees) will be paid to the party that wins the dispute.\n        address[3] parties; // Translator and challenger of the task.\n        uint disputeID; // The ID of the dispute created in arbitrator contract.\n        Round[] rounds; // Tracks each appeal round of a dispute.\n        uint ruling; // Ruling given to the dispute of the task by the arbitrator.\n    }\n\n    struct Round {\n        uint[3] paidFees; // Tracks the fees paid by each side in this round.\n        bool[3] hasPaid; // True when the side has fully paid its fee. False otherwise.\n        uint feeRewards; // Sum of reimbursable fees and stake rewards available to the parties that made contributions to the side that ultimately wins a dispute.\n        mapping(address => uint[3]) contributions; // Maps contributors to their contributions for each side.\n    }\n\n    address public governor; // The governor of the contract.\n    uint public reviewTimeout; // Time in seconds, during which the submitted translation can be challenged.\n    // All multipliers below are in basis points.\n    uint public translationMultiplier; // Multiplier for calculating the value of the deposit translator must pay to self-assign a task.\n    uint public challengeMultiplier; // Multiplier for calculating the value of the deposit challenger must pay to challenge a translation.\n    uint public sharedStakeMultiplier; // Multiplier for calculating the appeal fee that must be paid by submitter in the case where there isn't a winner and loser (e.g. when the arbitrator ruled \"refuse to arbitrate\").\n    uint public winnerStakeMultiplier; // Multiplier for calculating the appeal fee of the party that won the previous round.\n    uint public loserStakeMultiplier; // Multiplier for calculating the appeal fee of the party that lost the previous round.\n\n    Task[] public tasks; // Stores all created tasks.\n\n    mapping (uint => uint) public disputeIDtoTaskID; // Maps a disputeID to its respective task.\n\n    /* *** Events *** */\n\n    /** @dev To be emitted when the new task is created.\n     *  @param _taskID The ID of the newly created task.\n     *  @param _requester The address that created the task.\n     *  @param _timestamp When the task was created.\n     */\n    event TaskCreated(uint indexed _taskID, address indexed _requester, uint _timestamp);\n\n    /** @dev To be emitted when a translator assigns the task to himself.\n     *  @param _taskID The ID of the assigned task.\n     *  @param _translator The address that was assigned to the task.\n     *  @param _price The task price at the moment it was assigned.\n     *  @param _timestamp When the task was assigned.\n     */\n    event TaskAssigned(uint indexed _taskID, address indexed _translator, uint _price, uint _timestamp);\n\n    /** @dev To be emitted when a translation is submitted.\n     *  @param _taskID The ID of the respective task.\n     *  @param _translator The address that performed the translation.\n     *  @param _translatedText A URI to the translated text.\n     *  @param _timestamp When the translation was submitted.\n     */\n    event TranslationSubmitted(uint indexed _taskID, address indexed _translator, string _translatedText, uint _timestamp);\n\n    /** @dev To be emitted when a translation is challenged.\n     *  @param _taskID The ID of the respective task.\n     *  @param _challenger The address of the challenger.\n     *  @param _timestamp When the task was challenged.\n     */\n    event TranslationChallenged(uint indexed _taskID, address indexed _challenger, uint _timestamp);\n\n    /** @dev To be emitted when a task is resolved, either by the translation being accepted, the requester being reimbursed or a dispute being settled.\n     *  @param _taskID The ID of the respective task.\n     *  @param _reason Short description of what caused the task to be solved. One of: 'translation-accepted' | 'requester-reimbursed' | 'dispute-settled'\n     *  @param _timestamp When the task was resolved.\n     */\n    event TaskResolved(uint indexed _taskID, string _reason, uint _timestamp);\n\n    /** @dev To be emitted when the appeal fees of one of the parties are fully funded.\n     *  @param _taskID The ID of the respective task.\n     *  @param _party The party that is fully funded.\n     */\n    event HasPaidAppealFee(uint indexed _taskID, Party _party);\n\n    /* *** Modifiers *** */\n    modifier onlyGovernor() {require(msg.sender == governor, \"Only governor is allowed to perform this.\"); _;}\n\n    /** @dev Constructor.\n     *  @param _arbitrator The arbitrator of the contract.\n     *  @param _arbitratorExtraData Extra data for the arbitrator.\n     *  @param _reviewTimeout Time in seconds during which a translation can be challenged.\n     *  @param _translationMultiplier Multiplier for calculating translator's deposit. In basis points.\n     *  @param _challengeMultiplier Multiplier for calculating challenger's deposit. In basis points.\n     *  @param _sharedStakeMultiplier Multiplier of the appeal cost that submitter must pay for a round when there is no winner/loser in the previous round. In basis points.\n     *  @param _winnerStakeMultiplier Multiplier of the appeal cost that the winner has to pay for a round. In basis points.\n     *  @param _loserStakeMultiplier Multiplier of the appeal cost that the loser has to pay for a round. In basis points.\n     */\n    constructor(\n        Arbitrator _arbitrator,\n        bytes _arbitratorExtraData,\n        uint _reviewTimeout,\n        uint _translationMultiplier,\n        uint _challengeMultiplier,\n        uint _sharedStakeMultiplier,\n        uint _winnerStakeMultiplier,\n        uint _loserStakeMultiplier\n    ) public Arbitrable(_arbitrator, _arbitratorExtraData){\n        governor = msg.sender;\n        reviewTimeout = _reviewTimeout;\n        translationMultiplier = _translationMultiplier;\n        challengeMultiplier = _challengeMultiplier;\n        sharedStakeMultiplier = _sharedStakeMultiplier;\n        winnerStakeMultiplier = _winnerStakeMultiplier;\n        loserStakeMultiplier = _loserStakeMultiplier;\n    }\n\n    // ******************** //\n    // *    Governance    * //\n    // ******************** //\n\n    /** @dev Changes the governor of this contract.\n     *  @param _governor A new governor.\n     */\n    function changeGovernor(address _governor) public onlyGovernor {\n        governor = _governor;\n    }\n\n    /** @dev Changes the time allocated for review phase.\n     *  @param _reviewTimeout A new value of the time allotted for reviewing a translation. In seconds.\n     */\n    function changeReviewTimeout(uint _reviewTimeout) public onlyGovernor {\n        reviewTimeout = _reviewTimeout;\n    }\n\n    /** @dev Changes the multiplier for translator's deposit.\n     *  @param _translationMultiplier A new value of the multiplier for calculating translator's deposit. In basis points.\n     */\n    function changeTranslationMultiplier(uint _translationMultiplier) public onlyGovernor {\n        translationMultiplier = _translationMultiplier;\n    }\n\n    /** @dev Changes the multiplier for challenger's deposit.\n     *  @param _challengeMultiplier A new value of the multiplier for calculating challenger's deposit. In basis points.\n     */\n    function changeChallengeMultiplier(uint _challengeMultiplier) public onlyGovernor {\n        challengeMultiplier = _challengeMultiplier;\n    }\n\n    /** @dev Changes the percentage of arbitration fees that must be paid by parties as a fee stake if there was no winner and loser in the previous round.\n     *  @param _sharedStakeMultiplier A new value of the multiplier of the appeal cost in case when there is no winner/loser in previous round. In basis point.\n     */\n    function changeSharedStakeMultiplier(uint _sharedStakeMultiplier) public onlyGovernor {\n        sharedStakeMultiplier = _sharedStakeMultiplier;\n    }\n\n    /** @dev Changes the percentage of arbitration fees that must be paid as a fee stake by the party that won the previous round.\n     *  @param _winnerStakeMultiplier A new value of the multiplier of the appeal cost that the winner of the previous round has to pay. In basis points.\n     */\n    function changeWinnerStakeMultiplier(uint _winnerStakeMultiplier) public onlyGovernor {\n        winnerStakeMultiplier = _winnerStakeMultiplier;\n    }\n\n    /** @dev Changes the percentage of arbitration fees that must be paid as a fee stake by the party that lost the previous round.\n     *  @param _loserStakeMultiplier A new value of the multiplier of the appeal cost that the party that lost the previous round has to pay. In basis points.\n     */\n    function changeLoserStakeMultiplier(uint _loserStakeMultiplier) public onlyGovernor {\n        loserStakeMultiplier = _loserStakeMultiplier;\n    }\n\n    // **************************** //\n    // *    Modifying the state   * //\n    // **************************** //\n\n    /** @dev Creates a task based on provided details. Requires a value of maximal price to be deposited.\n     *  @param _deadline The deadline for the translation to be completed.\n     *  @param _minPrice A minimal price of the translation. In wei.\n     *  @param _metaEvidence A URI of meta-evidence object for task submission.\n     *  @return taskID The ID of the created task.\n     */\n    function createTask(\n        uint _deadline,\n        uint _minPrice,\n        string _metaEvidence\n    ) external payable returns (uint taskID) {\n        require(msg.value >= _minPrice, \"Deposited value should be greater than or equal to the min price.\");\n        require(_deadline > now, \"The deadline should be in the future.\");\n\n        taskID = tasks.length++;\n        Task storage task = tasks[taskID];\n        task.submissionTimeout = _deadline - now;\n        task.minPrice = _minPrice;\n        task.maxPrice = msg.value;\n        task.lastInteraction = now;\n        task.requester = msg.sender;\n        task.requesterDeposit = msg.value;\n\n        emit MetaEvidence(taskID, _metaEvidence);\n        emit TaskCreated(taskID, msg.sender, now);\n    }\n\n    /** @dev Assigns a specific task to the sender. Requires a translator's deposit.\n     *  Note that the deposit should be a little higher than the required value because of the price increase during the time the transaction is mined. The surplus will be reimbursed.\n     *  @param _taskID The ID of the task.\n     */\n    function assignTask(uint _taskID) external payable {\n        Task storage task = tasks[_taskID];\n        require(now - task.lastInteraction <= task.submissionTimeout, \"The deadline has already passed.\");\n\n        uint price = task.minPrice + (task.maxPrice - task.minPrice) * (now - task.lastInteraction) / task.submissionTimeout;\n        uint arbitrationCost = arbitrator.arbitrationCost(arbitratorExtraData);\n        uint translatorDeposit = arbitrationCost.addCap((translationMultiplier.mulCap(price)) / MULTIPLIER_DIVISOR);\n\n        require(task.status == Status.Created, \"Task has already been assigned or reimbursed.\");\n        require(msg.value >= translatorDeposit, \"Not enough ETH to reach the required deposit value.\");\n\n        task.parties[uint(Party.Translator)] = msg.sender;\n        task.status = Status.Assigned;\n\n        uint remainder = task.maxPrice - price;\n        task.requester.send(remainder);\n        // Update requester's deposit since we reimbursed him the difference between maximal and actual price.\n        task.requesterDeposit = price;\n        task.sumDeposit += translatorDeposit;\n\n        remainder = msg.value - translatorDeposit;\n        msg.sender.send(remainder);\n\n        emit TaskAssigned(_taskID, msg.sender, price, now);\n    }\n\n    /** @dev Submits translated text for a specific task.\n     *  @param _taskID The ID of the task.\n     *  @param _translation A URI to the translated text.\n     */\n    function submitTranslation(uint _taskID, string _translation) external {\n        Task storage task = tasks[_taskID];\n        require(task.status == Status.Assigned, \"The task is either not assigned or translation has already been submitted.\");\n        require(now - task.lastInteraction <= task.submissionTimeout, \"The deadline has already passed.\");\n        require(msg.sender == task.parties[uint(Party.Translator)], \"Can't submit translation to the task that wasn't assigned to you.\");\n        task.status = Status.AwaitingReview;\n        task.lastInteraction = now;\n\n        emit TranslationSubmitted(_taskID, msg.sender, _translation, now);\n    }\n\n    /** @dev Reimburses the requester if no one picked the task or the translator failed to submit the translation before deadline.\n     *  @param _taskID The ID of the task.\n     */\n    function reimburseRequester(uint _taskID) external {\n        Task storage task = tasks[_taskID];\n        require(task.status < Status.AwaitingReview, \"Can't reimburse if translation was submitted.\");\n        require(now - task.lastInteraction > task.submissionTimeout, \"Can't reimburse if the deadline hasn't passed yet.\");\n        task.status = Status.Resolved;\n        // Requester gets his deposit back and also the deposit of the translator, if there was one.  Note that sumDeposit can't contain challenger's deposit until the task is in DisputeCreated status.\n        uint amount = task.requesterDeposit + task.sumDeposit;\n        task.requester.send(amount);\n\n        task.requesterDeposit = 0;\n        task.sumDeposit = 0;\n\n        emit TaskResolved(_taskID, \"requester-reimbursed\", now);\n    }\n\n    /** @dev Pays the translator for completed task if no one challenged the translation during review period.\n     *  @param _taskID The ID of the task.\n     */\n    function acceptTranslation(uint _taskID) external {\n        Task storage task = tasks[_taskID];\n        require(task.status == Status.AwaitingReview, \"The task is in the wrong status.\");\n        require(now - task.lastInteraction > reviewTimeout, \"The review phase hasn't passed yet.\");\n        task.status = Status.Resolved;\n        // Translator gets the price of the task and his deposit back. Note that sumDeposit can't contain challenger's deposit until the task is in DisputeCreated status.\n        uint amount = task.requesterDeposit + task.sumDeposit;\n        task.parties[uint(Party.Translator)].send(amount);\n\n        task.requesterDeposit = 0;\n        task.sumDeposit = 0;\n\n        emit TaskResolved(_taskID, \"translation-accepted\", now);\n    }\n\n    /** @dev Challenges the translation of a specific task. Requires challenger's deposit.\n     *  @param _taskID The ID of the task.\n     *  @param _evidence A link to evidence using its URI. Ignored if not provided.\n     */\n    function challengeTranslation(uint _taskID, string _evidence) external payable {\n        Task storage task = tasks[_taskID];\n\n        uint arbitrationCost = arbitrator.arbitrationCost(arbitratorExtraData);\n        uint challengeDeposit = arbitrationCost.addCap((challengeMultiplier.mulCap(task.requesterDeposit)) / MULTIPLIER_DIVISOR);\n\n        require(task.status == Status.AwaitingReview, \"The task is in the wrong status.\");\n        require(now - task.lastInteraction <= reviewTimeout, \"The review phase has already passed.\");\n        require(msg.value >= challengeDeposit, \"Not enough ETH to cover challenge deposit.\");\n\n        task.status = Status.DisputeCreated;\n        task.parties[uint(Party.Challenger)] = msg.sender;\n\n        task.disputeID = arbitrator.createDispute.value(arbitrationCost)(2, arbitratorExtraData);\n        disputeIDtoTaskID[task.disputeID] = _taskID;\n        task.rounds.length++;\n        task.sumDeposit = task.sumDeposit.addCap(challengeDeposit).subCap(arbitrationCost);\n\n        uint remainder = msg.value - challengeDeposit;\n        msg.sender.send(remainder);\n\n        emit Dispute(arbitrator, task.disputeID, _taskID, _taskID);\n        emit TranslationChallenged(_taskID, msg.sender, now);\n\n        if (bytes(_evidence).length > 0)\n            emit Evidence(arbitrator, _taskID, msg.sender, _evidence);\n\n    }\n\n    /** @dev Takes up to the total amount required to fund a side of an appeal. Reimburses the rest. Creates an appeal if all sides are fully funded.\n     *  @param _taskID The ID of challenged task.\n     *  @param _side The party that pays the appeal fee.\n     */\n    function fundAppeal(uint _taskID, Party _side) external payable {\n        Task storage task = tasks[_taskID];\n        require(_side == Party.Translator || _side == Party.Challenger, \"Recipient must be either the translator or challenger.\");\n        require(task.status == Status.DisputeCreated, \"No dispute to appeal\");\n        require(arbitrator.disputeStatus(task.disputeID) == Arbitrator.DisputeStatus.Appealable, \"Dispute is not appealable.\");\n\n        (uint appealPeriodStart, uint appealPeriodEnd) = arbitrator.appealPeriod(task.disputeID);\n        require(now >= appealPeriodStart && now < appealPeriodEnd, \"Funding must be made within the appeal period.\");\n\n        uint winner = arbitrator.currentRuling(task.disputeID);\n        uint multiplier;\n        if (winner == uint(_side)){\n            multiplier = winnerStakeMultiplier;\n        } else if (winner == 0){\n            multiplier = sharedStakeMultiplier;\n        } else {\n            require(now - appealPeriodStart < (appealPeriodEnd - appealPeriodStart)/2, \"The loser must pay during the first half of the appeal period.\");\n            multiplier = loserStakeMultiplier;\n        }\n\n        Round storage round = task.rounds[task.rounds.length - 1];\n        require(!round.hasPaid[uint(_side)], \"Appeal fee has already been paid.\");\n\n        uint appealCost = arbitrator.appealCost(task.disputeID, arbitratorExtraData);\n        uint totalCost = appealCost.addCap((appealCost.mulCap(multiplier)) / MULTIPLIER_DIVISOR);\n\n        // Take up to the amount necessary to fund the current round at the current costs.\n        uint contribution; // Amount contributed.\n        uint remainingETH; // Remaining ETH to send back.\n        (contribution, remainingETH) = calculateContribution(msg.value, totalCost.subCap(round.paidFees[uint(_side)]));\n        round.contributions[msg.sender][uint(_side)] += contribution;\n        round.paidFees[uint(_side)] += contribution;\n        // Add contribution to reward when the fee funding is successful, otherwise it can be withdrawn later.\n        if (round.paidFees[uint(_side)] >= totalCost) {\n            round.hasPaid[uint(_side)] = true;\n            round.feeRewards += round.paidFees[uint(_side)];\n            emit HasPaidAppealFee(_taskID, _side);\n        }\n\n        // Reimburse leftover ETH.\n        msg.sender.send(remainingETH); // Deliberate use of send in order to not block the contract in case of reverting fallback.\n\n        // Create an appeal if each side is funded.\n        if (round.hasPaid[uint(Party.Translator)] && round.hasPaid[uint(Party.Challenger)]) {\n            arbitrator.appeal.value(appealCost)(task.disputeID, arbitratorExtraData);\n            task.rounds.length++;\n            round.feeRewards = round.feeRewards.subCap(appealCost);\n        }\n    }\n\n    /** @dev Returns the contribution value and remainder from available ETH and required amount.\n     *  @param _available The amount of ETH available for the contribution.\n     *  @param _requiredAmount The amount of ETH required for the contribution.\n     *  @return taken The amount of ETH taken.\n     *  @return remainder The amount of ETH left from the contribution.\n     */\n    function calculateContribution(uint _available, uint _requiredAmount)\n        internal\n        pure\n        returns(uint taken, uint remainder)\n    {\n        if (_requiredAmount > _available)\n            return (_available, 0); // Take whatever is available, return 0 as leftover ETH.\n\n        remainder = _available - _requiredAmount;\n        return (_requiredAmount, remainder);\n    }\n\n    /** @dev Witdraws contributions of appeal rounds. Reimburses contributions if no disputes were raised. If a dispute was raised, sends the fee stake rewards and reimbursements proportional to the contributions made to the winner of a dispute.\n     *  @param _beneficiary The address that made contributions.\n     *  @param _taskID The ID of the associated task.\n     *  @param _round The round from which to withdraw.\n     */\n    function withdrawFeesAndRewards(address _beneficiary, uint _taskID, uint _round) public {\n        Task storage task = tasks[_taskID];\n        Round storage round = task.rounds[_round];\n        require(task.status == Status.Resolved, \"The task should be resolved.\");\n        uint reward;\n        if (!round.hasPaid[uint(Party.Translator)] || !round.hasPaid[uint(Party.Challenger)]) {\n            // Allow to reimburse if funding was unsuccessful.\n            reward = round.contributions[_beneficiary][uint(Party.Translator)] + round.contributions[_beneficiary][uint(Party.Challenger)];\n            round.contributions[_beneficiary][uint(Party.Translator)] = 0;\n            round.contributions[_beneficiary][uint(Party.Challenger)] = 0;\n        } else if (task.ruling == uint(Party.None)) {\n            // Reimburse unspent fees proportionally if there is no winner and loser.\n            uint rewardTranslator = round.paidFees[uint(Party.Translator)] > 0\n                ? (round.contributions[_beneficiary][uint(Party.Translator)] * round.feeRewards) / (round.paidFees[uint(Party.Translator)] + round.paidFees[uint(Party.Challenger)])\n                : 0;\n            uint rewardChallenger = round.paidFees[uint(Party.Challenger)] > 0\n                ? (round.contributions[_beneficiary][uint(Party.Challenger)] * round.feeRewards) / (round.paidFees[uint(Party.Translator)] + round.paidFees[uint(Party.Challenger)])\n                : 0;\n\n            reward = rewardTranslator + rewardChallenger;\n            round.contributions[_beneficiary][uint(Party.Translator)] = 0;\n            round.contributions[_beneficiary][uint(Party.Challenger)] = 0;\n        } else {\n            // Reward the winner.\n            reward = round.paidFees[task.ruling] > 0\n                ? (round.contributions[_beneficiary][task.ruling] * round.feeRewards) / round.paidFees[task.ruling]\n                : 0;\n            round.contributions[_beneficiary][task.ruling] = 0;\n        }\n\n        _beneficiary.send(reward); // It is the user responsibility to accept ETH.\n    }\n\n    /** @dev Withdraws contributions of multiple appeal rounds at once. This function is O(n) where n is the number of rounds. This could exceed the gas limit, therefore this function should be used only as a utility and not be relied upon by other contracts.\n     *  @param _beneficiary The address that made contributions.\n     *  @param _taskID The ID of the associated task.\n     *  @param _cursor The round from where to start withdrawing.\n     *  @param _count The number of rounds to iterate. If set to 0 or a value larger than the number of rounds, iterates until the last round.\n     */\n    function batchRoundWithdraw(address _beneficiary, uint _taskID, uint _cursor, uint _count) public {\n        Task storage task = tasks[_taskID];\n        for (uint i = _cursor; i<task.rounds.length && (_count==0 || i<_cursor+_count); i++)\n            withdrawFeesAndRewards(_beneficiary, _taskID, i);\n    }\n\n    /** @dev Gives a ruling for a dispute. Can only be called by the arbitrator.\n     *  The purpose of this function is to ensure that the address calling it has the right to rule on the contract and to invert the ruling in the case a party loses from lack of appeal fees funding.\n     *  @param _disputeID ID of the dispute in the Arbitrator contract.\n     *  @param _ruling Ruling given by the arbitrator. Note that 0 is reserved for \"Refuse to arbitrate\".\n     */\n    function rule(uint _disputeID, uint _ruling) public {\n        Party resultRuling = Party(_ruling);\n        uint taskID = disputeIDtoTaskID[_disputeID];\n        Task storage task = tasks[taskID];\n        Round storage round = task.rounds[task.rounds.length - 1];\n        require(msg.sender == address(arbitrator), \"Must be called by the arbitrator.\");\n        require(task.status == Status.DisputeCreated, \"The dispute has already been resolved.\");\n\n        // If only one side paid its fees we assume the ruling to be in its favor.\n        if (round.hasPaid[uint(Party.Translator)] == true)\n            resultRuling = Party.Translator;\n        else if (round.hasPaid[uint(Party.Challenger)] == true)\n            resultRuling = Party.Challenger;\n\n        emit Ruling(Arbitrator(msg.sender), _disputeID, uint(resultRuling));\n        executeRuling(_disputeID, uint(resultRuling));\n    }\n\n    /** @dev Executes a ruling of a dispute.\n     *  @param _disputeID ID of the dispute in the Arbitrator contract.\n     *  @param _ruling Ruling given by the arbitrator. Note that 0 is reserved for \"Refuse to arbitrate\".\n     */\n    function executeRuling(uint _disputeID, uint _ruling) internal {\n        uint taskID = disputeIDtoTaskID[_disputeID];\n        Task storage task = tasks[taskID];\n        task.status = Status.Resolved;\n        task.ruling = _ruling;\n        uint amount;\n\n        if(_ruling == uint(Party.None)){\n            task.requester.send(task.requesterDeposit);\n            // The value of sumDeposit is split among parties in this case. If the sum is uneven the value of 1 wei can be burnt.\n            amount = task.sumDeposit / 2;\n            task.parties[uint(Party.Translator)].send(amount);\n            task.parties[uint(Party.Challenger)].send(amount);\n        } else if (_ruling == uint(Party.Translator)) {\n            amount = task.requesterDeposit + task.sumDeposit;\n            task.parties[uint(Party.Translator)].send(amount);\n        } else {\n            task.requester.send(task.requesterDeposit);\n            task.parties[uint(Party.Challenger)].send(task.sumDeposit);\n        }\n\n        task.requesterDeposit = 0;\n        task.sumDeposit = 0;\n\n        emit TaskResolved(taskID, \"dispute-settled\", now);\n    }\n\n    /** @dev Submit a reference to evidence. EVENT.\n     *  @param _taskID A task evidence is submitted for.\n     *  @param _evidence A link to evidence using its URI.\n     */\n    function submitEvidence(uint _taskID, string _evidence) external {\n        Task storage task = tasks[_taskID];\n        require(task.status != Status.Resolved, \"The task must not already be resolved.\");\n        emit Evidence(arbitrator, _taskID, msg.sender, _evidence);\n    }\n\n    // ******************** //\n    // *      Getters     * //\n    // ******************** //\n\n    /** @dev Returns the sum of withdrawable wei from appeal rounds. This function is O(n), where n is the number of rounds of the task. This could exceed the gas limit, therefore this function should only be used for interface display and not by other contracts.\n     *  @param _taskID The ID of the associated task.\n     *  @param _beneficiary The contributor for which to query.\n     *  @return The total amount of wei available to withdraw.\n     */\n    function amountWithdrawable(uint _taskID, address _beneficiary) external view returns (uint total){\n        Task storage task = tasks[_taskID];\n        if (task.status != Status.Resolved) return total;\n\n        for (uint i = 0; i < task.rounds.length; i++) {\n            Round storage round = task.rounds[i];\n            if (!round.hasPaid[uint(Party.Translator)] || !round.hasPaid[uint(Party.Challenger)]) {\n                total += round.contributions[_beneficiary][uint(Party.Translator)] + round.contributions[_beneficiary][uint(Party.Challenger)];\n            } else if (task.ruling == uint(Party.None)) {\n                uint rewardTranslator = round.paidFees[uint(Party.Translator)] > 0\n                    ? (round.contributions[_beneficiary][uint(Party.Translator)] * round.feeRewards) / (round.paidFees[uint(Party.Translator)] + round.paidFees[uint(Party.Challenger)])\n                    : 0;\n                uint rewardChallenger = round.paidFees[uint(Party.Challenger)] > 0\n                    ? (round.contributions[_beneficiary][uint(Party.Challenger)] * round.feeRewards) / (round.paidFees[uint(Party.Translator)] + round.paidFees[uint(Party.Challenger)])\n                    : 0;\n\n                total += rewardTranslator + rewardChallenger;\n            } else {\n                total += round.paidFees[uint(task.ruling)] > 0\n                    ? (round.contributions[_beneficiary][uint(task.ruling)] * round.feeRewards) / round.paidFees[uint(task.ruling)]\n                    : 0;\n            }\n        }\n\n        return total;\n    }\n\n    /** @dev Gets the deposit required for self-assigning the task.\n     *  @param _taskID The ID of the task.\n     *  @return deposit The translator's deposit.\n     */\n    function getDepositValue(uint _taskID) public view returns (uint deposit) {\n        Task storage task = tasks[_taskID];\n        if (now - task.lastInteraction > task.submissionTimeout || task.status != Status.Created) {\n            deposit = NOT_PAYABLE_VALUE;\n        } else {\n            uint price = task.minPrice + (task.maxPrice - task.minPrice) * (now - task.lastInteraction) / task.submissionTimeout;\n            uint arbitrationCost = arbitrator.arbitrationCost(arbitratorExtraData);\n            deposit = arbitrationCost.addCap((translationMultiplier.mulCap(price)) / MULTIPLIER_DIVISOR);\n        }\n    }\n\n    /** @dev Gets the deposit required for challenging the translation.\n     *  @param _taskID The ID of the task.\n     *  @return deposit The challengers's deposit.\n     */\n    function getChallengeValue(uint _taskID) public view returns (uint deposit) {\n        Task storage task = tasks[_taskID];\n        if (now - task.lastInteraction > reviewTimeout || task.status != Status.AwaitingReview) {\n            deposit = NOT_PAYABLE_VALUE;\n        } else {\n            uint arbitrationCost = arbitrator.arbitrationCost(arbitratorExtraData);\n            deposit = arbitrationCost.addCap((challengeMultiplier.mulCap(task.requesterDeposit)) / MULTIPLIER_DIVISOR);\n        }\n    }\n\n    /** @dev Gets the current price of a specified task.\n     *  @param _taskID The ID of the task.\n     *  @return price The price of the task.\n     */\n    function getTaskPrice(uint _taskID) public view returns (uint price) {\n        Task storage task = tasks[_taskID];\n        if (now - task.lastInteraction > task.submissionTimeout || task.status != Status.Created) {\n            price = 0;\n        } else {\n            price = task.minPrice + (task.maxPrice - task.minPrice) * (now - task.lastInteraction) / task.submissionTimeout;\n        }\n    }\n\n    /** @dev Gets the total number of created tasks.\n     *  @return The number of created tasks.\n     */\n    function getTaskCount() public view returns (uint) {\n        return tasks.length;\n    }\n\n    /** @dev Gets the number of rounds of the specific task.\n     *  @param _taskID The ID of the task.\n     *  @return The number of rounds.\n     */\n    function getNumberOfRounds(uint _taskID) public view returns (uint) {\n        Task storage task = tasks[_taskID];\n        return task.rounds.length;\n    }\n\n    /** @dev Gets the contributions made by a party for a given round of task's appeal.\n     *  @param _taskID The ID of the task.\n     *  @param _round The position of the round.\n     *  @param _contributor The address of the contributor.\n     *  @return The contributions.\n     */\n    function getContributions(\n        uint _taskID,\n        uint _round,\n        address _contributor\n    ) public view returns(uint[3] contributions) {\n        Task storage task = tasks[_taskID];\n        Round storage round = task.rounds[_round];\n        contributions = round.contributions[_contributor];\n    }\n\n    /** @dev Gets the addresses of parties of a specified task.\n     *  @param _taskID The ID of the task.\n     *  @return The addresses of requester, translator and challenger.\n     */\n    function getTaskParties(uint _taskID)\n        public\n        view\n        returns (\n            address[3] parties\n        )\n    {\n        Task storage task = tasks[_taskID];\n        parties = task.parties;\n    }\n\n    /** @dev Gets the information on a round of a task.\n     *  @param _taskID The ID of the task.\n     *  @param _round The round to be queried.\n     *  @return The round information.\n     */\n    function getRoundInfo(uint _taskID, uint _round)\n        public\n        view\n        returns (\n            uint[3] paidFees,\n            bool[3] hasPaid,\n            uint feeRewards\n        )\n    {\n        Task storage task = tasks[_taskID];\n        Round storage round = task.rounds[_round];\n        return (\n            round.paidFees,\n            round.hasPaid,\n            round.feeRewards\n        );\n    }\n}\n",
  "sourcePath": "/home/henrique/dev/kleros/kleros-interaction/contracts/standard/arbitration/Linguo.sol",
  "compiler": {
    "name": "solc",
    "version": "0.4.26+commit.4563c3fc.Emscripten.clang"
  },
  "schemaVersion": "2.0.3",
  "updatedAt": "2020-06-22T22:58:52.138Z"
}